:020000040000FA
:100000000C948A000C94B2000C94B2000C94B200D0
:100010000C94B2000C94B2000C94B2000C94B01387
:100020000C94B2000C94B2000C9451150C94B200D4
:100030000C94B2000C94D4140C94B2000C94B20042
:100040000C948A140C94B2000C9458140C9432142E
:100050000C94B2000C94B2000C94B2000C94B20058
:100060000C94B2000C94B2000000000024002700A1
:100070002A0000000000250028002B0002536572B2
:1000800069616C20636F6D6D756E69636174696F12
:100090006E206163636F6D706C69736865642E00B8
:1000A00000000000230026002900040404040404C6
:1000B0000404020202020202030303030303010217
:1000C00004081020408001020408102001020408E6
:1000D00010200000000800020100000304070000D7
:1000E0000000000000000000010002000300050005
:1000F0000600070008000A0010001000110012009E
:1001000013007C3C3E5E2B3D3F2F5B5D3B2C2A2247
:100110005C00CD1511241FBECFEFD8E0DEBFCDBFF0
:1001200011E0A0E0B1E0EEE8F0E402C005900D922D
:10013000AE39B107D9F725E0AEE9B1E001C01D92B3
:10014000A737B207E1F710E0CAE8D0E004C0219772
:10015000FE010E94851BC938D107C9F70E942416E9
:100160000C9445200C940000AF92BF92CF92DF9286
:10017000EF92FF920F931F93CF93DF936C017B015C
:100180008B01040F151FEB015E01AE18BF08C017ED
:10019000D10759F06991D601ED91FC910190F08160
:1001A000E02DC6010995892B79F7C501DF91CF9123
:1001B0001F910F91FF90EF90DF90CF90BF90AF9085
:1001C0000895FC01538D448D252F30E0842F90E05D
:1001D000821B930B541710F0CF9608950197089542
:1001E000FC01918D828D981761F0A28DAE0FBF2F0B
:1001F000B11D5D968C91928D9F5F9F73928F90E061
:1002000008958FEF9FEF0895FC01918D828D9817CF
:1002100031F0828DE80FF11D858D90E008958FEF0C
:100220009FEF0895FC01918D228D892F90E0805CD5
:100230009F4F821B91098F739927089580E794E05F
:100240000E94120121E0892B09F420E0822F0895F9
:1002500080E090E0892B29F00E941E0181110C940E
:1002600000000895FC01A48DA80FB92FB11DA35A59
:10027000BF4F2C91848D90E001968F739927848FC6
:10028000A689B7892C93A089B1898C9183708064E9
:100290008C93938D848D981306C00288F389E02D8A
:1002A00080818F7D80830895EF92FF920F931F933B
:1002B000CF93DF93EC0181E0888F9B8D8C8D981319
:1002C0001AC0E889F989808185FF15C09FB7F89425
:1002D000EE89FF896083E889F98980818370806471
:1002E00080839FBF81E090E0DF91CF911F910F91BC
:1002F000FF90EF900895F62E0B8D10E00F5F1F4FCB
:100300000F731127E02E8C8D8E110CC00FB607FCD9
:10031000FACFE889F989808185FFF5CFCE010E9467
:100320003201F1CFEB8DEC0FFD2FF11DE35AFF4FA2
:10033000F0829FB7F8940B8FEA89FB8980818062F5
:10034000CFCFCF93DF93EC01888D8823B9F0AA89B2
:10035000BB89E889F9898C9185FD03C0808186FD80
:100360000DC00FB607FCF7CF8C9185FFF2CF8081CF
:1003700085FFEDCFCE010E943201E9CFDF91CF9111
:100380000895833081F028F4813099F08230A9F00B
:1003900008958730A9F08830C9F08430B1F4809195
:1003A00080008F7D03C0809180008F7780938000D4
:1003B000089584B58F7784BD089584B58F7DFBCF74
:1003C0008091B0008F778093B00008958091B00045
:1003D0008F7DF9CF1F93CF93DF93282F30E0F90162
:1003E000EE52FF4F8491F901E254FF4FD491F9018D
:1003F000E655FF4FC491CC23A9F0162F81110E941E
:10040000C101EC2FF0E0EE0FFF1FEE58FF4FA5915A
:10041000B4918FB7F894EC91111108C0D095DE23F8
:10042000DC938FBFDF91CF911F910895DE2BF8CF22
:10043000CF93DF9390E0FC01E254FF4F2491865567
:100440009F4FFC0184918823C9F090E0880F991F89
:10045000FC01E859FF4FA591B491FC01EE58FF4F04
:10046000C591D49161110DC09FB7F8948C912095DE
:1004700082238C938881282328839FBFDF91CF918B
:100480000895623051F49FB7F8943C91822F809583
:1004900083238C93E8812E2BEFCF8FB7F894EC91C8
:1004A0002E2B2C938FBFEACF3FB7F8948091AC01ED
:1004B0009091AD01A091AE01B091AF0126B5A89B7E
:1004C00005C02F3F19F00196A11DB11D3FBFBA2FE6
:1004D000A92F982F8827BC01CD01620F711D811DA6
:1004E000911D42E0660F771F881F991F4A95D1F72B
:1004F00008958F929F92AF92BF92CF92DF92EF9228
:10050000FF924B015C010E9454026B017C010E942E
:1005100054026C197D098E099F09683E734081055C
:100520009105A8F321E0821A9108A108B10888EE8C
:10053000C80E83E0D81EE11CF11C81149104A104B3
:10054000B10429F7FF90EF90DF90CF90BF90AF906C
:100550009F908F9008952FB7F8946091A8017091A3
:10056000A9018091AA019091AB012FBF08958FB787
:10057000F8948091A0018FBF089561E0FC0184810F
:100580000E94EA0180919F01811110929F010895BC
:100590008EBD00000DB407FEFDCF8EB508958FEF20
:1005A0000C94C8020F931F93CF93DF93EC010E942A
:1005B000AB028B010E94CF028F3F69F00E94AB0219
:1005C000601B710B6C177D07A8F380E0DF91CF9162
:1005D0001F910F91089581E0F9CF8CBD9DBD0895C5
:1005E000CF93DF93EC0180919F01811109C081E0DD
:1005F00080939F0180912805909129050E94ED022A
:1006000060E08C81DF91CF910C94EA018F929F92F0
:10061000AF92BF92FF920F931F93CF93DF93EC01A2
:10062000F62E49015A018E81882389F08F819885A1
:100630009C012F5F3F4F38872F838230924018F400
:100640000E94CF02F3CFCE010E94BD021E82CE01D6
:100650000E94F0028CE291E00E94D2028F2D806411
:100660000E94C80208E110E0D501C401002E04C0B8
:10067000B695A795979587950A94D2F70E94C802D8
:1006800008501109083F8FEF180771F785E9FF201F
:1006900021F028E087E8F2128FEF0E94C80210E0F4
:1006A0000E94CF028A8787FF04C01F3F11F01F5F9F
:1006B000F7CFDF91CF911F910F91FF90BF90AF9037
:1006C0009F908F900895AF92BF92CF92DF92EF925A
:1006D000FF920F931F93CF93DF93EC016901C80141
:1006E000820F931F8130924050F58E81882379F0DC
:1006F00088819981AA81BB8184179507A607B707CE
:1007000031F48F819885C816D90608F042C0488315
:1007100059836A837B838B85833039F089E0440F6A
:10072000551F661F771F8A95D1F79A01AB0161E1CA
:10073000CE010E940603882389F083E08D83CE01D9
:100740000E94BD0280E0DF91CF911F910F91FF9039
:10075000EF90DF90CF90BF90AF9008950E94AB02D2
:100760005B010E94CF028A878F3F69F40E94AB022F
:100770006A197B096D327140A0F38FE08D83CE0141
:100780000E94BD02DCCF8E3F89F418861F8281E073
:100790008E838F8198858C159D0550F40E94CF0221
:1007A0008F819885019698878F83F3CF8DE0E6CF70
:1007B0006701E00EF11E0E94CF02F60181936F01E6
:1007C000EE15FF05C1F78F819885080F191F18874F
:1007D0000F838985882319F001151240A0F08E81BE
:1007E000882389F08F8198859C012F5F3F4F388740
:1007F0002F838230924018F40E94CF02F3CFCE01B3
:100800000E94BD021E8281E09ECFCF92DF92EF92C6
:10081000FF920F93CF93DF93EC01690182E14115C1
:1008200051056105710599F08B85833039F089E0B8
:10083000440F551F661F771F8A95D1F79A01AB01A8
:1008400068E1CE010E940603882319F084E08D83BD
:100850002DC08EEF0E94C80276018EEFD81AF701E4
:1008600081917F010E94C802EC14FD04C1F78FEF53
:100870000E94C8028FEF0E94C8020E94CF028A879E
:100880008F71853071F4011116C0CE010E94BD0236
:1008900081E0DF91CF910F91FF90EF90DF90CF90AB
:1008A000089581E18D83CE010E94BD02CE010E9498
:1008B000BD0280E0EECF88E592E00E94D202811175
:1008C00002C085E1C4CF20E030E0A9016DE0CE0197
:1008D0000E940603882311F084E1B9CF0E94CF0261
:1008E0008111FACFD2CF0F934091A1015091A20173
:1008F0006091A3017091A401411551056105710535
:1009000099F0082F20E732E08091DE019091DF011D
:100910000E940504882349F01092A1011092A201BF
:100920001092A3011092A40181E00F9108950F93FA
:10093000CF93C82F80916F02811105C0C1E08C2F29
:10094000CF910F910895409104015091050160915C
:100950000601709107010C2F20E732E08091DE0143
:100960009091DF010E940504811102C0C0E0E7CF31
:10097000CC2321F381E00E9473048823B9F3109201
:100980006F02DDCF8F929F92AF92BF92EF92FF9254
:100990000F931F93CF934B015C01C42F80910401EF
:1009A00090910501A0910601B09107018815990564
:1009B000AA05BB0551F181E00E94970481110BC08B
:1009C00080E0CF911F910F91FF90EF90BF90AF907B
:1009D0009F908F90089580E7E82E82E0F82E00E047
:1009E00012E030E020E0B501A4018091DE01909199
:1009F000DF010E946303882319F38092040190921F
:100A00000501A0920601B092070140916F024C2BA4
:100A100040936F0281E0D5CF8F929F92AF92BF92A9
:100A2000CF92DF92EF92FF92CF932AE235E030939C
:100A3000DF012093DE01882309F46DC040E060E00F
:100A400070E0CB010E94C20481110BC080E0CF9105
:100A5000FF90EF90DF90CF90BF90AF909F908F90DE
:100A6000089580912E048F7789F780913A049091B0
:100A70003B04A0913C04B0913D0484369105A1054E
:100A8000B10520F3C0903604D0903704E0903804CC
:100A9000F0903904C114D104E104F104B9F240E04A
:100AA000C701B6010E94C204882381F280917B02B3
:100AB00090917C028115924049F6A0918002AA2370
:100AC00029F260917E0270917F026115710509F42F
:100AD000BDCF20917D02222309F4B8CFA093480511
:100AE00020933A0590E080E030E0E1E0F0E0C82FAC
:100AF000AF01082E02C0440F551F0A94E2F72417D5
:100B0000350769F041E0480F01968930910579F782
:100B1000409343059BCFC12CD12C7601C0CF80934D
:100B20004305209186023091870250E040E0211574
:100B3000310541F420919402309195024091960242
:100B40005091970220933B0530933C0540933D051F
:100B500050933E0546015701860E971EA11CB11CFD
:100B60008092490590924A05A0924B05B0924C059F
:100B7000E0918102F0918202F0934F05E0934E05DF
:100B8000B0E00E940A1BDC01CB01880D991DAA1D53
:100B9000BB1D8093500590935105A0935205B093CF
:100BA000530525E0EE0FFF1F2A95E1F7E150FE4FB8
:100BB000EF2FFF27E6958E0F9F1FA11DB11D80937C
:100BC000440590934505A0934605B0934705809052
:100BD000830290908402B12CA12C8114910441F4E1
:100BE0008090900290909102A0909202B090930217
:100BF000C81AD90AEA0AFB0AC80CD91CEA1CFB1C51
:100C000004C0F694E794D794C794CA95D2F7C092DB
:100C10003F05D0924005E0924105F092420585EFF4
:100C2000C8168FE0D806E104F10428F48CE0809324
:100C30004D0581E00CCF80E125EFC2162FEFD206E3
:100C4000E104F104A0F380919C0290919D02A09197
:100C50009E02B0919F028093500590935105A093FE
:100C60005205B093530580E2E2CF4F925F926F92AC
:100C70007F928F929F92AF92BF92CF92DF92EF922C
:100C8000FF920F931F93CF93DF93EC0142305105F6
:100C90006105710590F480E0DF91CF911F910F9174
:100CA000FF90EF90DF90CF90BF90AF909F908F908C
:100CB0007F906F905F904F90089589859A85AB855E
:100CC000BC850196A11DB11D84179507A607B7071E
:100CD00010F3CB88DC88ED88FE888F89803109F09D
:100CE00042C0BB27A72F962F852F480159012A0103
:100CF0003B01C80ED91EEA1EFB1E80910401909193
:100D00000501A0910601B0910701C816D906EA06AF
:100D1000FB0699F58F898031C1F5B301A2015527F2
:100D200066277727440F551F40595D4FFA0191827E
:100D3000808280916F02816080936F028A89823005
:100D400080F08D819E81AF81B8858C0D9D1DAE1D7B
:100D5000BF1D8093A1019093A201A093A301B09322
:100D6000A40181E099CFDB01CA01E7E0B695A79520
:100D700097958795EA95D1F7B8CF40E0C701B601BE
:100D80000E94C2048111C6CF86CFB301A2014F7762
:100D9000552766277727440F551F440F551F405985
:100DA0005D4FFA0180829182A282B382C2CF8F927C
:100DB0009F92AF92BF92CF92DF92EF92FF920F93EA
:100DC0001F93CF93DF93FC0181859285A385B48522
:100DD0000196A11DB11D84179507A607B70770F4EA
:100DE00080E0DF91CF911F910F91FF90EF90DF9006
:100DF000CF90BF90AF909F908F90089583889488F4
:100E0000A588B6888789803189F5BB27A72F962FBB
:100E1000852FE9016A017B018F01BC01CD01680DBD
:100E2000791D8A1D9B1D8090040190900501A09062
:100E30000601B090070186169706A806B90601F5C7
:100E4000F8018789803111F5DD24EE24FF24F601B5
:100E5000EE0FFF1FE059FD4F80819181B0E0A0E0CF
:100E600088839983AA83BB8381E0BBCFDB01CA015E
:100E7000C7E0B695A79597958795CA95D1F7C9CF3D
:100E800040E00E94C2048111DBCFAACFE894C7F8EA
:100E9000DD24EE24FF24F601EE0FFF1FEE0FFF1FEF
:100EA000E059FD4F80819181A281B381BF70D8CF7D
:100EB0004F925F926F927F92AF92BF92CF92DF92EA
:100EC000EF92FF920F931F93CF93DF9300D000D048
:100ED000CDB7DEB78C0149835A836B837C8359017C
:100EE000C12CD12C7601412C82E0582E612C712C22
:100EF00049815A816B817C819E012F5F3F4FC801E0
:100F00000E94D706882339F1F8018585A301920153
:100F100004C0220F331F441F551F8A95D2F7DA01F0
:100F2000C901C80ED91EEA1EFB1E49815A816B8178
:100F30007C818789803111F188EF9FEFAFEFBFE0AF
:100F4000481759076A077B0798F2F501C082D182DA
:100F5000E282F38281E00F900F900F900F90DF916B
:100F6000CF911F910F91FF90EF90DF90CF90BF90A6
:100F7000AF907F906F905F904F90089588EF9FEFB4
:100F8000A0E0B0E0DDCFCF93DF93FC0125812223E9
:100F900021F080E0DF91CF910895EC0180914D0523
:100FA000803159F582E08583178A108E118E128E5A
:100FB00080914E0590914F05B0E0A0E025E0880FAC
:100FC000991FAA1FBB1F2A95D1F7838B948BA58BE2
:100FD000B68B86E395E09C8F8B8F81E08C831E829D
:100FE0001F82188619861A861B861C861D861E86F9
:100FF0001F86188A198A1A8ACDCF803251F683E06B
:101000008583409150055091510560915205709132
:101010005305478B508F618F728F9F012D5E3F4F1D
:1010200086E395E00E9458078111D3CFB2CF8F920B
:101030009F92AF92BF92CF92DF92EF92FF920F9367
:101040001F93CF93DF93EC018D8181110EC080E05F
:10105000DF91CF911F910F91FF90EF90DF90CF9094
:10106000BF90AF909F908F9008950B891C892D8918
:101070003E89041715072607370748F34A015B0125
:10108000823031F48A869B86AC86BD8681E0E0CFD3
:1010900081149104A104B10449F41E821F821886B0
:1010A00019861A861B861C861D86F0CF0A851B852D
:1010B0002C853D85EB8DFC8D858590E00996B901E9
:1010C000A8014150510961097109082E04C07695A3
:1010D0006795579547950A94D2F775016401E1E049
:1010E000CE1AD108E108F10804C0F694E794D79429
:1010F000C7948A95D2F7C416D506E606F70620F0FF
:10110000012B022B032B11F58F89988DA98DBA8D98
:101110008E839F83A887B9878E010A5F1F4FC114F2
:10112000D104E104F10409F4ADCF4E815F816885FB
:10113000798598018B8D9C8D0E94D70691E0C91A04
:10114000D108E108F1088111EACF81CFC41AD50A8C
:10115000E60AF70AE1CF20912605309127052115EF
:10116000310541F0AB01BC01C9010E94170891E0B3
:10117000811101C090E0892F08953F924F925F92B4
:101180006F927F928F929F92AF92BF92CF92DF9297
:10119000EF92FF920F931F93CF93DF93CDB7DEB7FC
:1011A0002C970FB6F894DEBF0FBECDBF5C01DC01FB
:1011B0005B968D909C905C9716964D905D906D908F
:1011C0007C901997411451046104710409F468C0BA
:1011D000BFEF4B1A5B0A6B0A7B0A312CF401818545
:1011E0009285A385B4859C01AD012F5F3F4F4F4F82
:1011F0005F4F29873A874B875C87730162011D82A5
:101200001E821F821886F40181859285A385B4858C
:101210002D813E814F815885281739074A075B0782
:1012200008F056C089859A85AB85BC858C159D05CF
:10123000AE05BF0550F482E0C82ED12CE12CF12C74
:1012400092E0492E512C612C712C9E012F5F3F4F53
:10125000B701A601C4010E94D7068823C9F189817C
:101260009A81AB81BC81892B8A2B8B2B09F12601BA
:1012700037019FEF491A590A690A790A2D813E817F
:101280004F8158852F5F3F4F4F4F5F4F2D833E83D8
:101290004F8358873FEFC31AD30AE30AF30AB3CF49
:1012A000F40140805180628073803324339496CF60
:1012B000C414D504E604F70409F70FEF1FEF2FEF6E
:1012C0003FE0B701A601C4010E943506811119C093
:1012D00080E02C960FB6F894DEBF0FBECDBFDF9135
:1012E000CF911F910F91FF90EF90DF90CF90BF9023
:1012F000AF909F908F907F906F905F904F903F90B6
:101300000895D50116964D915D916D917C91199737
:10131000411551056105710539F097018601C40138
:101320000E9435068823A1F2D5011696CD92DD9252
:10133000ED92FC921997332051F0D701C601019626
:10134000A11DB11DF40180839183A283B383F501B4
:101350008789908DA18DB28D892B8A2B8B2B39F4A7
:101360008481C78AD08EE18EF28E80688483F501F5
:1013700084818062848381E0ACCF2F923F924F9230
:101380005F926F927F928F929F92AF92BF92CF9215
:10139000DF92EF92FF920F931F93CF93DF93EC01B5
:1013A0005B012A018D81811115C08FEF9FEFDF91C5
:1013B000CF911F910F91FF90EF90DF90CF90BF9052
:1013C000AF909F908F907F906F905F904F903F90E5
:1013D0002F9008958C8180FFE8CF0B891C892D897F
:1013E0003E894A855B856C857D85C201B0E0A0E0C1
:1013F00068017901C41AD50AE60AF70AC816D9069F
:10140000EA06FB0618F42801441A550A42011E0197
:1014100026E0220E311C8114910409F4B3C04A85E0
:101420005B856C857D856A0181E0D8228B8D9C8DE2
:101430008A019B01E9E03695279517950795EA956E
:10144000D1F7ED81E230E1F5FC01628D738D848D81
:10145000958D600F711F821F931F612C22E0722EE9
:101460006C187D088614970408F434012C8126FD3D
:1014700004C06114F2E07F0671F400910401109140
:10148000050120910601309107010617170728076B
:10149000390709F053C040E00E94C204882309F4D0
:1014A00084CFC60180599D4FD5019C01260D371D63
:1014B000FC012E173F0709F460C041914D93F9CF0D
:1014C000FC0174807A947022C114D10471F47110FB
:1014D0000CC0452B462B472B39F58F89988DA98D4C
:1014E000BA8D8E839F83A887B987EB8DFC8D6E8123
:1014F0007F818885998562507109810991092585C7
:1015000004C0660F771F881F991F2A95D2F706859A
:10151000178520893189600F711F821F931F670D06
:10152000711D811D911D99CF4E815F8168857985DF
:1015300091010E94D7068111D8CF37CF7501830161
:101540009601AB01BC018091DE019091DF010E9408
:101550006303882309F429CFA60CB71C8A859B85D1
:10156000AC85BD85860D971DA11DB11D8A879B8702
:10157000AC87BD87861897084ECF281B390BA20E63
:10158000B31EECCFC20113CF1F93CF93DF93FC01A7
:1015900025812223D1F1162FEC01848187FF2AC0F7
:1015A000668577858089918941E00E94C2048823FD
:1015B00061F1EA8980E2E89FF0011124E059FD4FD2
:1015C000309719F18D81823040F48B899C89AD89E7
:1015D000BE89848F958FA68FB78F8F89988D938FB3
:1015E000828F8F89988DA98DBA8DB58BA48B8C81B4
:1015F0008F778C83111103C08C818F7E8C83812F18
:10160000DF91CF911F910C94970480E0DF91CF91EF
:101610001F910895FF920F931F93CF93DF93EC01D7
:101620008D81813041F090E080E0DF91CF911F917A
:101630000F91FF9008958C8181FFF5CF82FD1BC033
:101640000091DE011091DF01C8010E94F0020E94AA
:10165000CF02F82EC8010E94BD028FEFF812E3CF2F
:101660008C8185FF1BC060E0CE010E94C40A8C8182
:101670008F7D8C83D8CF4B895C896D897E898A85E3
:101680009B85AC85BD8584179507A607B707C1F272
:10169000CE010E9417088111D3CFC5CF4091A1017F
:1016A0005091A2016091A3017091A401452B462B9A
:1016B000472B21F080E00E947304B5CF80618C83BA
:1016C0002A853B85317080E092E0821B930BADCF81
:1016D000CF93DF93EC0161E00E94C40A882311F0EC
:1016E0001D8281E0DF91CF9108952F923F924F921A
:1016F0005F926F927F928F929F92AF92BF92CF92A2
:10170000DF92EF92FF920F931F93CF93DF9300D05E
:1017100000D01F92CDB7DEB77C015B01342E5D8314
:10172000DC0115968C911597813009F0CEC0149686
:101730002C9021FECAC022FCB4C0C32CDD802294B0
:101740007FE027222094B22DB1702B2ED7011A965C
:101750004D915D916D917C911D97C114D10409F457
:1017600028C15B968D919C915C97FC0174807A9462
:101770008A019B0169E036952795179507956A952B
:10178000D1F770228A011170711020C00115110566
:10179000E9F416964D915D916D917C9119974115E3
:1017A00051056105710509F099C057968D919D917C
:1017B0000D90BC91A02D0097A105B10509F0B0C016
:1017C000C7010E94BD08882309F47FC080E092E031
:1017D000801B910B46018C159D0508F44C01D70127
:1017E0005B964D915C915C9716968D919D910D90B5
:1017F000BC91A02D0297A109B109FA01258504C069
:10180000880F991FAA1FBB1F2A95D2F746855785B7
:1018100060897189840F951FA61FB71F9C01AD01B8
:10182000270D311D411D511D29013A01811432E05E
:10183000930609F07BC08091040190910501A0916D
:101840000601B091070184159505A605B70559F461
:101850008FEF9FEFDC018093040190930501A0932B
:101860000601B0930701022D9501B301A2018091F9
:10187000DE019091DF010E940504882331F19EEF83
:10188000B91AC818D908F70182859385A485B5854A
:10189000880D991DA11DB11D82879387A487B587E7
:1018A00055CFF70143895489658976898285938567
:1018B000A485B585481759076A077B0709F43DCF0A
:1018C000C7010E941708811138CF81E090E0D7014D
:1018D00013969C938E93129780E007C09E012F5F12
:1018E0003F4F0E94D706811102C090E079C08981E4
:1018F0009A81AB81BC81F701238D348DF901278951
:1019000048EF5FEF60E070E0203121F048EF5FEFDB
:101910006FEF7FE084179507A607B70708F050CF51
:10192000F70186839783A087B18750CF01151105F2
:1019300099F5D7011A964D915D916D917C911D9706
:1019400053968D919D910D90BC91A02D48175907EC
:101950006A077B0708F181E00E949704882309F455
:10196000B4CF40920401509205016092060170923A
:10197000070180916F02816080936F02C8018059D6
:101980009D4FD5019C01280D391DFC012E173F07E5
:1019900059F04D914193FACF41E0C301B2010E9449
:1019A000C2048111EBCF91CF281B390BA20EB31EBD
:1019B00068CFF70183899489A589B689841795072B
:1019C000A607B70738F48481438B548B658B768BDD
:1019D00080688483F701848183FD1AC0832D9D81F3
:1019E0000F900F900F900F900F90DF91CF911F915C
:1019F0000F91FF90EF90DF90CF90BF90AF909F90AE
:101A00008F907F906F905F904F903F902F900895B0
:101A100061E0C7010E94C40A882309F456CFDECFD3
:101A2000CF93DF931F92CDB7DEB7698341E050E0DB
:101A3000BE016F5F7F4F0E94750B0F90DF91CF91BA
:101A40000895FC01DB0112968D919C91139793836D
:101A500082838EE391E09183808314968C91149716
:101A6000848315968C911597858316964D915D917B
:101A70006D917C91199746835783608771871A9679
:101A80004D915D916D917C911D974287538764873D
:101A900075871E964D915D916D917C91519746870A
:101AA0005787608B718B52968C915297828B53968D
:101AB0004D915D916D917C915697438B548B658BC5
:101AC000768B57964D915D916D917C915A97478B8E
:101AD000508F618F728F5B968D919C91948F838FC5
:101AE00008950895FC01818D928D009719F061E0B1
:101AF0000C94C40A0895DC015996ED91FC9130973D
:101B0000B9F083899489A589B6894285538564850E
:101B10007585841B950BA60BB70B811520E89207E2
:101B2000A105B10538F08FEF9FE7A0E0B0E0089580
:101B300090E080E00895DC0159968D919C9100978A
:101B400039F0DC01ED91FC910480F581E02D0994E0
:101B500090E080E00895CF93DF93EC01E98DFA8D5A
:101B6000309749F481E090E09B838A8390E080E0A5
:101B7000DF91CF91089513821282898D9A8D0E94F0
:101B8000750BE98DFA8D22813381232B59F7F0CF24
:101B9000CF93DF931F92CDB7DEB76983DC01ED9160
:101BA000FC910280F381E02D41E050E0BE016F5FC7
:101BB0007F4F09950F90DF91CF910895CF93DF93D9
:101BC0001F92CDB7DEB741E050E0BE016F5F7F4F9F
:101BD0000E94BD09019731F4898190E00F90DF9157
:101BE000CF9108958FEF9FEFF9CFFC01818D928DFA
:101BF000009711F00C94DE0D8FEF9FEF08950F9377
:101C00001F93CF93DF93EC01898D9A8D10E000E054
:101C1000009799F00E94DE0D8C010F3F100769F0CC
:101C2000898D9A8DFC014285538564857585415067
:101C30005109610971090E941708C801DF91CF910C
:101C40001F910F9108950F931F93CF93DF93EC0192
:101C500080E2689FF0011124E059FD4F6A8B80916A
:101C6000040190910501A0910601B09107018E87B2
:101C70009F87A88BB98B0489158930E020E09801F3
:101C8000112700270F8B188F298F3A8F828D938D04
:101C9000B0E0A0E0AC01BD01402B512B622B732BB7
:101CA0004F8B588F698F7A8F83858871A9F4848DC3
:101CB000958DA68DB78D8B8B9C8BAD8BBE8B81E06C
:101CC0008D8381E08C831E821F82188619861A8676
:101CD0001B861C861D8603C0803131F080E0DF91B9
:101CE000CF911F910F9108959E012D5E3F4F8B8DD7
:101CF0009C8D0E945807882389F384E0E1CFAF923E
:101D0000BF92CF92DF92EF92FF920F931F93CF93E8
:101D1000DF93CDB7DEB72B970FB6F894DEBF0FBEBB
:101D2000CDBF6C01FE013196CE010C967F0120E201
:101D30002193E817F907E1F7DA0120E037E09D91F8
:101D4000B92E9923A9F19E32B9F43A3091F480E08A
:101D50002B960FB6F894DEBF0FBECDBFDF91CF91AB
:101D60001F910F91FF90EF90DF90CF90BF90AF90B9
:101D7000089528E03AE0E3CFE2E0F1E0849188239F
:101D800021F031969813FACFE2CF321700F38FED9E
:101D9000890F8E35E0F68FE9890F8A3118F440EE0D
:101DA000B42EB90EF701E20FF11DB0822F5FC7CF3D
:101DB0008981803261F28B01FB01838D948DF60164
:101DC000948F838FFB0116821782108611861286EC
:101DD000138614861586F80182859385A485B585BA
:101DE000438954896589768984179507A607B707BB
:101DF00008F0ADCF25E0B695A795979587952A95DC
:101E0000D1F7F82FFF70AF2EF8018581823008F4EA
:101E10009ECFC8010E94DE0D97FD99CFF801828503
:101E20009385A485B5854F96A11DB11D82879387A3
:101E3000A487B587F0E2AF9EB001112460597D4FB1
:101E40006115710509F483CFFB018081882309F1B5
:101E5000853E19F4B11032C01EC04BE050E0C701FE
:101E60000E946D1D892B09F0B6CF6A2DC6012B96F5
:101E70000FB6F894DEBF0FBECDBFDF91CF911F919B
:101E80000F91FF90EF90DF90CF90BF90AF900C94A8
:101E9000230EB1105CCFF601A28A809104019091CB
:101EA0000501A0910601B091070186879787A08B55
:101EB000B18BFB018081882309F449CFBB24B39403
:101EC0008ACF8091260590912705009761F00E94A6
:101ED000680B80912605909127050E94271C10927F
:101EE0002705109226050895CF93DF93EC01888192
:101EF0009981009711F00E94271C198218821D8277
:101F00001C821B821A82DF91CF910895FC0180818F
:101F10009181009711F00C94271C089542E050E045
:101F200066E471E080E794E00C94B400CF93DF9313
:101F3000FC0101900020E9F73197AF01481B590BD4
:101F4000BC0180E794E00E94B400EC010E948E0F77
:101F50008C0F9D1FDF91CF910895CF93DF93FC01EC
:101F6000448155816081718180E794E00E94B400D2
:101F7000EC010E948E0F8C0F9D1FDF91CF91089571
:101F80000F931F93CF93DF93EC0188819981009782
:101F900059F02A813B812617370730F081E0DF9125
:101FA000CF911F910F9108958B016F5F7F4F0E941A
:101FB000B01C009759F0998388831B830A832C8176
:101FC0003D81232B59F7FC011082E8CF80E0E7CF59
:101FD000EF92FF920F931F93CF93DF93EC017B015E
:101FE000198218821B821A821D821C82FB010190B9
:101FF0000020E9F731978F01061B170BB8010E94EB
:10200000C00F811109C0CE01DF91CF911F910F91B7
:10201000FF90EF900C94740F1D830C83B70188819F
:102020009981DF91CF911F910F91FF90EF900C94C8
:102030008E1DCF92DF92EF92FF920F931F93CF935B
:10204000DF93CDB7DEB762970FB6F894DEBF0FBE51
:10205000CDBF8C01CB01F801118210821382128254
:10206000158214824AE09E012F5F3F4F6901B9013A
:102070000E94B61AF60101900020E9F731977F011E
:10208000EC18FD08B701C8010E94C00F811112C0F1
:10209000C8010E94740F62960FB6F894DEBF0FBE9F
:1020A000CDBFDF91CF911F910F91FF90EF90DF9007
:1020B000CF900895F801F582E482B6018081918184
:1020C0000E948E1DE8CFEF92FF920F931F93CF9344
:1020D000DF936115710541F480E0DF91CF911F918D
:1020E0000F91FF90EF90089541155105B1F07B01DC
:1020F000EC010C811D81040F151FB8010E94C00F57
:10210000882351F3288139818C819D81B701820F09
:10211000931F0E948E1D1D830C8381E0DECFCF9321
:10212000DF93EC01FB0144815581608171810E9444
:102130006310811103C0CE010E94740FCE01DF91A4
:10214000CF910895EF92FF920F931F93CF93DF9358
:10215000EC017B018A011B821A8288EE93E0A0E0E9
:10216000B0E08C839D83AE83BF838CE291E0998342
:1021700088838DE190E00E948B1B9A8F898F009756
:1021800079F02DE1F701DC0101900D922A95E1F73C
:102190004CE050E0B801CE010C960E94951D188EBF
:1021A000DF91CF911F910F91FF90EF9008952F92A3
:1021B0003F924F925F926F927F928F929F92AF92D7
:1021C000BF92CF92DF92EF92FF920F931F93CF9324
:1021D000DF93CDB7DEB7C257D1090FB6F894DEBF93
:1021E0000FBECDBF5C019091670280916E0298177F
:1021F00009F471C01092650280916F008E7D80930A
:102200006F000E94610F8091800090E0880F892FFD
:10221000881F990B0197C9F58091880090918900DA
:1022200050E040E020916C0230916D02421753075C
:1022300060F570E060E097FD05C0B9018217930773
:1022400008F4BC0170938B0060938A0070E060E03A
:1022500097FD05C0B9018217930708F4BC0170937C
:10226000890060938800225331096AE070E0E091B0
:102270008400F0918500E217F307C8F361507109FB
:10228000B1F74F5F5F4F0197CDCF8091030180621F
:1022900080930301109281001092800061E0809190
:1022A00067020E94180280916702863009F44FC0CD
:1022B0008E3209F44EC0853009F04DC081E0809324
:1022C00066028DB581608DBD8CB58C7F8CBD809193
:1022D000670280936E021092650280916F008E7D7E
:1022E00080936F000E94610F19A218A28EE391E003
:1022F0009F8F8E8F1BA21C821B829A8389831E82D2
:102300004E016EE1860E911CC4010E94C307650157
:102310008E010F5F1F4F240118016FE270E0C601AC
:102320000E94831D009709F461C0F60120812F32BD
:10233000A9F4FFEFCF1ADF0A902F812F8201492ED7
:10234000582E942D852D2801092F182FE6CF82E0D5
:10235000B6CF83E0B4CF10926602B3CF8C198D3024
:1023600008F08CE0E82EF12CA701B601CE01885AC6
:102370009F4F0E94951DE8E5F0E0EC0FFD1FEE0D6C
:10238000FF1D1082C8010E94680BF8018581882317
:10239000F1F01EAE1DAE8EE391E09CAF8BAF2196A7
:1023A0001FAE2197A60CB71CF5018081811127C0B3
:1023B000BE01655C7F4FC1010E94210D49E451E0DF
:1023C000B101CE01885A9F4F0E94A2103FC0AE01BA
:1023D000485A5F4FB201C8010E947F0E8823C9F29C
:1023E000CE0CDF1CC2010E94680BABCF36016A180D
:1023F0007B08B201CE01CB960E94210DD3CF19A24A
:1024000018A28EE391E09F8F8E8F1BA221968FAD35
:102410002197811152C16C961FAE1EAE6C9788EE4B
:1024200093E0A0E0B0E0A0968CAF9DAFAEAFBFAFA1
:10243000A0978CE291E06A969FAF8EAF6A97E39681
:102440001FAE1EAEE397A5961FAEA5976C968EADF8
:102450009FAD6C979093100580930F05A0968CAD5F
:102460009DADAEADBFADA0978093110590931205C1
:10247000A0931305B0931405A4968CAD9DADAEAD9D
:10248000BFADA4978093150590931605A0931705EB
:10249000B0931805A8E5B0E0AC0FBD1F1C96E9E1AC
:1024A000F5E08D91819365E0E632F607D1F7E3968A
:1024B0008EAD9FADE397909327058093260568E046
:1024C00070E080E090E00E94AB0880911201909152
:1024D0001301A0911401B091150189839A83AB83F4
:1024E000BC8381017E0175E0E70EF11C8DE095E073
:1024F0000E94F50DF80121918F01022E000C330B83
:102500008217930719F4EE16FF0681F768E170E071
:1025100080E090E00E94AB088DE095E00E94F50D10
:1025200090936B0280936A028DE095E00E94F50D16
:1025300020E0382F80916A0290916B02282B392B72
:1025400030936B0220936A026CE270E080E090E0CE
:102550000E94AB0880E490E0909364028093630251
:1025600081E08093650280910301982F9F7790937B
:10257000030120916A0230916B022B3F3F4A30F0F9
:1025800020EC3DE530936B0220936A0220916A02B1
:1025900030916B0250E040E086FFA3C060E075E33D
:1025A0008CE090E00E94EB1A6AE0629FC001639F9A
:1025B000900D112490936D0280936C028DE095E054
:1025C0000E94F50D8C018DE095E00E94FF0D800FBB
:1025D000911F97FD01969595879530916202432F43
:1025E000032E000C550B13160CF080C04091880090
:1025F00050918900BA0102C0769567953A95E2F745
:102600009B01992750E040E02817390708F07BC06C
:102610002F5F3F4F8217930708F49C01FA01EE5198
:10262000FE4F20834F5F5F4F4034510589F750E0E4
:1026300040E02F5F3F4F8217930708F49C01FA0197
:10264000EE5DFD4F20834F5F5F4F4034510589F7AA
:102650001092E10110920101109202011092E0012A
:10266000F89480916C0290916D0290938700809312
:10267000860082EB8093800089E18093810081E273
:1026800080936F007894CE58DF4F0FB6F894DEBF7A
:102690000FBECDBFDF91CF911F910F91FF90EF90B3
:1026A000DF90CF90BF90AF909F908F907F906F9072
:1026B0005F904F903F902F900895A501BE01655CFB
:1026C0007F4FC4010E947F0E882309F4A4CECE015F
:1026D000CB960E94680BB401C1010E94210DA50197
:1026E0006FCE60E07AE688E190E05CCF20918800D0
:1026F0003091890051954195510902C0220F331F35
:102700004A95E2F77ECFB9016150710968177907E0
:1027100018F12115310509F09B01FA01EE51FE4F28
:1027200020834F5F5F4F4034510569F750E040E030
:10273000B901615071096817790780F021153105D9
:1027400009F09B01FA01EE5DFD4F20834F5F5F4F63
:102750004034510569F77CCF9C01DFCF9C01F2CF5B
:102760001F920F920FB60F9211242F933F934F9306
:102770005F936F937F938F939F93AF93BF93EF93E9
:10278000FF938091B6019091B701A091B801B091EB
:10279000B901892B8A2B8B2BD1F19091B101E0915A
:1027A000B201F091B3018081892780838091B601C5
:1027B0009091B701A091B801B091B901181619060E
:1027C0001A061B069CF48091B6019091B701A09166
:1027D000B801B091B9010197A109B1098093B6017F
:1027E0009093B701A093B801B093B901FF91EF9115
:1027F000BF91AF919F918F917F916F915F914F9119
:102800003F912F910F900FBE0F901F9018958091C0
:102810000001ECE7F0E0E4919FEF90930001E130DC
:1028200051F030F0E23069F060E00E94EA01DECF62
:1028300010926E00F9CF90916F009D7F90936F0082
:10284000F3CF909170009D7F9093700091E09093F2
:10285000B0009091B100987F94609093B100109275
:10286000B300E2CF1F920F920FB60F9211242F9355
:102870003F934F935F936F937F938F939F93AF9308
:10288000BF93EF93FF9380E794E00E943201FF91A2
:10289000EF91BF91AF919F918F917F916F915F91D8
:1028A0004F913F912F910F900FBE0F901F90189551
:1028B0001F920F920FB60F9211242F938F939F9315
:1028C000EF93FF93E0918004F09181048081E09187
:1028D0008604F091870482FD1BC090818091890459
:1028E0008F5F8F7320918A04821741F0E0918904F1
:1028F000F0E0E059FB4F958F80938904FF91EF91B1
:102900009F918F912F910F900FBE0F901F90189550
:102910008081F4CF1F920F920FB60F9211242F9344
:102920003F938F939F93AF93BF938091A801909112
:10293000A901A091AA01B091AB013091A70123E0B8
:10294000230F2D3758F50196A11DB11D2093A70126
:102950008093A8019093A901A093AA01B093AB0121
:102960008091AC019091AD01A091AE01B091AF0109
:102970000196A11DB11D8093AC019093AD01A09370
:10298000AE01B093AF01BF91AF919F918F913F91F5
:102990002F910F900FBE0F901F90189526E8230FD0
:1029A0000296A11DB11DD2CF1F920F920FB60F92AA
:1029B00011242F933F934F935F938F939F93EF93A4
:1029C000FF938091030186FD3FC020916202422F58
:1029D000022E000C550B27FF4FC08091E101209182
:1029E000E00130E4839FC00111248E519E4F820F7D
:1029F000911DFC01808190E051954195510902C0E3
:102A0000959587954A95E2F790938B0080938A007D
:102A100090938900809388008091E0018F5F80937C
:102A2000E0018091E0018034D0F01092E001E0916B
:102A3000E101F0E0EF5FFE4F91E090838091E101D2
:102A400089278093E1010BC08091A60191E089273D
:102A50008093A6018091A601882309F4B6CFFF9147
:102A6000EF919F918F915F914F913F912F910F9097
:102A70000FBE0F901F9018958091E1013091E001F9
:102A8000F0E48F9FC00111248E519E4F830F911D42
:102A9000FC01808190E002C0880F991F2A95E2F71F
:102AA000B3CF1F920F920FB60F9211242F933F9323
:102AB0004F935F936F937F938F939F93AF93BF9346
:102AC000EF93FF93E091E10191E0E927F0E0EF5F00
:102AD000FE4F80818823B9F18091E101892780939D
:102AE000A50180916F008F7D80936F0078948DE0B9
:102AF00095E00E947B0D20916302309164022817BB
:102B0000390790F18091030183FF0CC06CE270E003
:102B100080E090E00E94AB0880916F00806280931B
:102B20006F0011C080916F008E7D80936F00E091E7
:102B30002605F0912705309721F0858181110E94AB
:102B4000610F10926502FF91EF91BF91AF919F913C
:102B50008F917F916F915F914F913F912F910F9046
:102B60000FBE0F901F9018956091A50180912605CA
:102B700090912705009751F020E4629FB001112445
:102B80006E517E4F40E450E00E94BD09E091A501E6
:102B9000F0E0EF5FFE4F1082BFCFE0E7F4E013827A
:102BA000128288EE93E0A0E0B0E084839583A68350
:102BB000B7832AE131E03183208325EC30E035878B
:102BC000248724EC30E03787268720EC30E0318BF7
:102BD000208B21EC30E0338B228B22EC30E0358BE4
:102BE000248B26EC30E0378B268B118E128E138EC1
:102BF000148EEDE0F5E01382128284839583A68320
:102C0000B7838CE291E091838083128E118E1486BB
:102C1000E8E2F5E080E580831182EAE2F5E01582E2
:102C200016821186138682E090E0A0E0B0E08487EF
:102C30009587A687B78713A215A614A68EE391E001
:102C400093A782A717A60895CF93DF93CDB7DEB7DA
:102C50002E970FB6F894DEBF0FBECDBF789484B523
:102C6000826084BD84B5816084BD85B5826085BD88
:102C700085B5816085BD80916E00816080936E0016
:102C80001092810080918100826080938100809108
:102C900081008160809381008091800081608093B9
:102CA00080008091B10084608093B1008091B00079
:102CB00081608093B00080917A00846080937A0074
:102CC00080917A00826080937A0080917A0081609E
:102CD00080937A0080917A00806880937A001092C5
:102CE000C100E0918004F091810482E08083E09152
:102CF0007C04F0917D041082E0917E04F0917F04C9
:102D00008FEC808310928804E0918404F091850414
:102D100086E08083E0918204F09183048081806169
:102D20008083E0918204F0918304808188608083B5
:102D3000E0918204F0918304808180688083E09137
:102D40008204F091830480818F7D80830DE710E001
:102D5000F8016491662341F080E794E00E945401F9
:102D60000F5F1F4F892BA1F70E948E0F6EE070E05E
:102D7000CE0101960E9419106BE471E0CE01079616
:102D80000E94E80FBE016F5F7F4FCE0107960E9441
:102D90008F100E94AD0FCE0107960E94860FCE01C4
:102DA00001960E94860F80915905882321F084E5C1
:102DB00095E00E94680B1092350510923305109231
:102DC000300510922F0584E080932E050E94AB02FF
:102DD0008B0161E080912E050E94180261E08091D4
:102DE0002E050E94EA01FFB6F8948091B00181118E
:102DF00027C0E4EBF0E08491E8ECF0E09491E82F58
:102E0000F0E0EE0FFF1FE859FF4FA591B491EC9150
:102E1000E92321F461E08AE00E94EA0161E08AE0AE
:102E20000E9418028CB580618CBD8CB580648CBD0D
:102E300061E08DE00E94180261E08BE00E941802C0
:102E40008091B0018F5F8093B001FFBE82E58093D7
:102E500028051092290580912805909129050E9446
:102E6000ED022AE0F22E8FEF0E94C802FA94F110D0
:102E7000FACF8AE295E00E94F00220E030E0A9015A
:102E800060E08AE295E00E940603F82E8093340504
:102E9000F1E08F1709F4EAC00E94AB02601B710BCE
:102EA000613D774050F381E080932F058AE295E001
:102EB0000E94BD028EE591E00E94960F8091000174
:102EC000893009F4D3C18F3F09F4FAC14AE7442E8F
:102ED00041E0542E50E0252E50E0352E96EEC92EBE
:102EE00090E0D92E20EDE22E21E0F22E32EC632E7E
:102EF00031E0732E10E000E0F60125913491332784
:102F0000F901EE52FF4F8491F901E254FF4FB49062
:102F1000F901E655FF4FA490AA2009F480C281115F
:102F20000E94C101EA2DF0E0EE0FFF1FE056FF4FB7
:102F3000A591B491EC91BE2231E020E009F430E09B
:102F4000832F922FFE86ED86282F2170F701208394
:102F5000F3012081222309F465C0892B09F062C0A6
:102F6000B801CE0101960E94191061E871E0CE010E
:102F700007960E94E80FBE016F5F7F4FCE01079654
:102F80000E948F105C014CE050E069E871E00E9403
:102F90006310811103C0C5010E94740FC5010E9416
:102FA000AD0FCE0107960E94860FCE0101960E94BA
:102FB000860F5801F5E0AF0EB11CB501CE010196A8
:102FC0000E94191066E971E0CE0107960E94E80F91
:102FD000BE016F5F7F4FCE0107960E948F104C019C
:102FE00044E050E06CE771E00E946310811103C07F
:102FF000C4010E94740FC4010E94AD0FCE01079658
:103000000E94860FCE0101960E94860FBF92AF925A
:103010005F924F920E94A41D0E94D7100F900F90B4
:103020000F900F908FEFE81AF80AED85FE858081EA
:10303000F30181933F0163E270E080E090E00E9441
:1030400079020F5F1F4FF2E0CF0ED11C0E30110539
:1030500009F052CF2114310409F440CF0E941E011F
:10306000882309F43BCF0E94000038CF2AEA31E0E0
:1030700040E050E068E08AE295E00E94060382FFAB
:103080002AC0F092350580913505C12CD12C7601EE
:10309000823029F4C12CD12CE12C80E4F82E20E0E0
:1030A00030E0A90167E38AE295E00E940603A701E8
:1030B000960169E28AE295E00E9406038093340556
:1030C0008823D1F00E94AB02601B710B613D7740F9
:1030D00030F388E0E9CE94E0F92E0E94CF0280938D
:1030E0003405FA94F110F9CF8A3A11F082E0DCCE7F
:1030F00082E080933505C7CF809135058230D1F4C9
:1031000020E030E0A9016AE38AE295E00E9406032C
:10311000882311F086E0C8CE0E94CF02807C803CDC
:1031200019F483E0809335050E94CF020E94CF02FC
:103130000E94CF028AE295E00E94BD0280E5809362
:1031400028051092290581E00E940C05882309F4C6
:1031500086C084E595E00E94C307882309F4AACEBF
:1031600066EEC62E60E0D62E70EDE72E71E0F72EEB
:10317000E2ECAE2EE1E0BE2EFEED8F2EF1E09F2EB2
:1031800011E0F6018591949162E00E941802F70126
:1031900011937F01F50111935F0164EF71E080E00D
:1031A00090E00E947902F2E0CF0ED11C8E149F04B1
:1031B00041F761E089E00E94180260E08EE00E9421
:1031C000180289E0809367021093620280E4809382
:1031D0007C0080917A00806480937A0080917A00EC
:1031E00086FDFCCF8091780060917900762F682F62
:1031F000072E000C880B990B61157105810591054F
:1032000011F00E94AD1A0E945E1A6B017C0186E6E5
:1032100091E00E94960F8EE691E00E94D71084E71D
:1032200091E00E94960FC701B60122E030E040E035
:1032300050E00E94EB1ADC01CB010296A11DB11DEA
:103240009F938F938AE791E09F938F930E94A41D91
:103250000E94D7100F900F900F900F9037CE80E004
:103260000E940C05882309F425CE73CFECE7F0E02B
:10327000149117FD2BCE61E089E00E941802112302
:1032800009F48DC0123009F0A2C08091B100887F8E
:1032900083608093B10089EF8093B30080EA9FE060
:1032A000A0E0B0E08093B6019093B701A093B8017D
:1032B000B093B9018091700082608093700006CE57
:1032C00089E080930001ECE7F0E014911F3F09F4DE
:1032D000FDCD113021F150F0123009F43EC017FD40
:1032E000F5CD61E089E00E941802CCCF14BC15BC7A
:1032F00084B5826084BD85B5816085BDE3EBF0E077
:10330000E491F0E0EE0FFF1FEE58FF4F859194918E
:10331000E7ECF0E0E491E093B50110E0ACCF10925F
:1033200080001092810080918100886080938100EC
:1033300080918100816080938100E3EBF0E0E49173
:10334000F0E0EE0FFF1FEE58FF4F85919491E7ECF0
:10335000F0E0E491E093B4018ECF1092B0001092AF
:10336000B1008091B00082608093B0008091B10084
:1033700081608093B100E3EBF0E0E491F0E0EE0FC8
:10338000FF1FEE58FF4F859194919093B301809366
:10339000B201E7ECF0E0E491E093B1016CCF85B5C8
:1033A000887F836085BD8CE787BD80EA9FE0A0E0D1
:1033B000B0E08093BE019093BF01A093C001B09391
:1033C000C10180916E00826080936E007FCD1130CC
:1033D000F1F480918100887F8160809381008FE388
:1033E0009FE1909389008093880080EA9FE0A0E0AD
:1033F000B0E08093BA019093BB01A093BC01B0935D
:10340000BD0180916F00826080936F005FCD1230AC
:1034100021F011115BCD8FE3C7CF8FE33DCF90E05B
:1034200080E090CD8F929F92AF92BF92CF92DF9229
:10343000EF92FF92CF93DF93EC01688179818A81CB
:103440009B81611571058105910521F464E279ED97
:103450008BE597E02DE133EF41E050E00E94EB1A5D
:1034600049015A019B01AC01A7EAB1E40E940A1B81
:103470006B017C01ACEEB4EFA50194010E94181B16
:10348000C60ED71EE81EF91EF7FE06C081E0C81A58
:10349000D108E10880E8F80AC882D982EA82FB8272
:1034A000C701B6019F77DF91CF91FF90EF90DF903A
:1034B000CF90BF90AF909F908F9008958F929F92E2
:1034C000AF92BF92CF92DF92EF92FF92609108018C
:1034D0007091090180910A0190910B0161157105AC
:1034E0008105910521F464E279ED8BE597E02DE10A
:1034F00033EF41E050E00E94EB1A49015A019B0171
:10350000AC01A7EAB1E40E940A1B6B017C01ACEE9E
:10351000B4EFA50194010E94181BC60ED71EE81E29
:10352000F91EF7FE06C081E0C81AD108E10880E85C
:10353000F80AC0920801D0920901E0920A01F092C3
:103540000B01C701B6019F77FF90EF90DF90CF90FE
:10355000BF90AF909F908F900895609308017093F3
:10356000090180930A0190930B010895BB274A300B
:1035700031F4992322F4BDE2909581959F4F0C94EC
:10358000C21ABB27FB015527AA27880F991FAA1F1C
:10359000A41710F0A41B83955051B9F7A05DAA336E
:1035A00008F0A95DA193009779F7B111B193119239
:1035B000CB010C94DB1ADC01FC01672F719177239E
:1035C000E1F7329704C07C916D9370836291AE17DE
:1035D000BF07C8F30895052E97FB1EF400940E94C0
:1035E000021B57FD07D00E94541B07FC03D04EF46A
:1035F0000C94021B50954095309521953F4F4F4FAD
:103600005F4F089590958095709561957F4F8F4F8E
:103610009F4F08950E94761BA59F900DB49F900D1B
:10362000A49F800D911D11240895B7FF0C940A1BCF
:103630000E940A1B821B930B08952F923F924F9278
:103640005F926F927F928F929F92AF92BF92CF9232
:10365000DF92EF92FF920F931F93CF93DF93CDB73B
:10366000DEB7CA1BDB0B0FB6F894DEBF0FBECDBFB3
:1036700009942A88398848885F846E847D848C8484
:103680009B84AA84B984C884DF80EE80FD800C818D
:103690001B81AA81B981CE0FD11D0FB6F894DEBF70
:1036A0000FBECDBFED010895A1E21A2EAA1BBB1BD0
:1036B000FD010DC0AA1FBB1FEE1FFF1FA217B307FE
:1036C000E407F50720F0A21BB30BE40BF50B661F14
:1036D000771F881F991F1A9469F7609570958095D8
:1036E00090959B01AC01BD01CF010895A29FB0014F
:1036F000B39FC001A39F700D811D1124911DB29F26
:10370000700D811D1124911D0895EE0FFF1F05906E
:10371000F491E02D09940F931F93CF93DF938230A0
:10372000910510F482E090E0E0917505F091760546
:1037300030E020E0B0E0A0E0309799F421153105A9
:1037400009F44AC0281B390B24303105D8F58A8189
:103750009B816115710589F1FB0193838283FE01D1
:1037600011C0408151810281138148175907E0F04F
:103770004817590799F4109761F012960C93129715
:1037800013961C933296CF01DF91CF911F910F9129
:1037900008950093750510937605F4CF2115310532
:1037A00051F04217530738F0A901DB019A01BD011E
:1037B000DF01F801C1CFEF01F9CF90937605809337
:1037C0007505CDCFFE01E20FF31F81939193225037
:1037D000310939832883D7CF20917305309174053F
:1037E000232B41F420910E0130910F013093740589
:1037F0002093730520910C0130910D0121153105A5
:1038000041F42DB73EB74091100150911101241B96
:10381000350BE0917305F0917405E217F307A0F4FE
:103820002E1B3F0B2817390778F0AC014E5F5F4F16
:103830002417350748F04E0F5F1F509374054093CF
:103840007305819391939FCFF0E0E0E09CCFCF93FD
:10385000DF930097E9F0FC01329713821282A09166
:103860007505B0917605ED0130E020E01097A1F4E8
:1038700020813181820F931F20917305309174054F
:103880002817390709F061C0F0937405E0937305B8
:10389000DF91CF910895EA01CE17DF07E8F54A815D
:1038A0005B819E0141155105B1F7E901FB83EA8374
:1038B00049915991C40FD51FEC17FD0761F4808120
:1038C00091810296840F951FE901998388838281F3
:1038D00093819B838A83F0E0E0E012968D919C9126
:1038E00013970097B9F52D913C911197CD01029650
:1038F000820F931F209173053091740528173907A3
:1039000039F6309751F51092760510927505B093FF
:103910007405A0937305BCCFD383C28340815181CA
:10392000840F951FC817D90761F44E5F5F4F8881D8
:103930009981480F591F518340838A819B819383CA
:1039400082832115310509F0B0CFF0937605E0931D
:1039500075059ECFFD01DC01C0CF13821282D7CF47
:10396000B0E0A0E0E6EBFCE10C941F1B8C0100979B
:1039700051F4CB010E948B1B8C01C801CDB7DEB77F
:10398000E0E10C943B1BFC01E60FF71F9C01225069
:103990003109E217F30708F49DC0D901CD91DC91FC
:1039A0001197C617D70798F0C530D10530F3CE016F
:1039B00004978617970708F3C61BD70B2297C19366
:1039C000D1936D937C93CF010E94271CD6CF5B01CE
:1039D000AC1ABD0A4C018C0E9D1EA0917505B091CC
:1039E0007605512C412CF12CE12C109731F580916A
:1039F0007305909174058815990509F05CC0461609
:103A0000570608F058C080910C0190910D01009765
:103A100041F48DB79EB74091100150911101841B64
:103A2000950BE817F90708F055C0F0937405E0937B
:103A30007305F90171836083A0CF8D919C911197DB
:103A400012966C90129713967C901397A815B9054F
:103A500059F56C0142E0C40ED11CCA14DB0420F1FC
:103A6000AC014A195B09DA011296159780F062825F
:103A7000738251834083D9016D937C93E114F104E7
:103A800071F0D7011396FC93EE93129776CF22969E
:103A90008C0F9D1FF90191838083F301EFCFF09389
:103AA0007605E093750569CF4816590608F42C0190
:103AB0007D01D3019ACFCB010E948B1B7C01009723
:103AC00049F0AE01B8010E947A1DC8010E94271C6E
:103AD000870153CF10E000E050CFFB01DC0104C0B0
:103AE0008D910190801921F441505040C8F7881BF6
:103AF000990B0895FB01DC0102C001900D92415029
:103B00005040D8F70895FC018191861721F0882351
:103B1000D9F7992708953197CF010895FB01DC016A
:103B200001900D920020E1F70895FB01DC01415066
:103B3000504048F001900D920020C9F701C01D923D
:103B400041505040E0F70895AEE0B0E0EAEAFDE110
:103B50000C942B1B0D891E8986E08C831A830983A4
:103B60008FEF9FE79E838D83AE01475E5F4F6F8926
:103B7000788DCE0101960E94C71D2F813885020FD6
:103B8000131FF80110822E96E4E00C94471BABE063
:103B9000B0E0EDECFDE10C941D1B7C013B018A01C2
:103BA000FC0117821682838181FFC8C1CE01019674
:103BB0005C01F7019381F30193FD859193FF81915E
:103BC0003F01882309F453C1853239F493FD85916F
:103BD00093FF81913F01853229F4B70190E00E9463
:103BE000B71FE7CF912C212C312CFFE1F31538F0D2
:103BF0008B3211F190F4803209F1833229F137FCD4
:103C00003CC020ED280F2A3050F536FE20C08AE057
:103C1000989E200D1124922E06C08D3291F0803393
:103C200071F7689430F8F30193FD859193FF8191CA
:103C30003F018111DACF21C0689431F8689432F8DD
:103C4000F2CF689433F8EFCF689434F8ECCFEAE021
:103C50002E9E200D1124222E689435F8E4CF8E324A
:103C600029F436FC04C1689436F8DDCF8C3619F49B
:103C7000689437F8D8CF8836B1F2982F9F7D955445
:103C80009330E0F08336A1F18337C1F1833509F039
:103C900063C02801F2E04F0E511CF801C080D180B2
:103CA000692D70E036FC02C06FEF7FEFC6010E9405
:103CB000A11F4C01689437F882010AC00C5F1F4FA6
:103CC000FFE3F98388248394912C6501E89437F805
:103CD00033FE2DC0522C8114910471F5552009F446
:103CE00068CFB70180E290E00E94B71F5A94F6CFE8
:103CF000F801808189830E5F1F4FE4CF2801F2E035
:103D00004F0E511CF801C080D180692D70E036FC47
:103D100002C06FEF7FEFC6010E94AC1F4C01820111
:103D2000D5CFB70180E290E00E94B71F2A942814F3
:103D3000190409F0B0F7CECFF60137FC859137FEB4
:103D400081916F01B70190E00E94B71F51105A9402
:103D5000F1E08F1A9108BFCF843619F0893609F047
:103D600077C0F80137FE6BC06081718182819381D9
:103D70000C5F1F4FF32DFF763F2E97FF09C09095E4
:103D80008095709561957F4F8F4F9F4F689437F85E
:103D90002AE030E0A5010E94E71FC82ECA188C2C2B
:103DA000432C36FE0CC0E89440F8C91440F434FEAD
:103DB00005C032FC03C0F32DFE7E4F2E892C44FE3D
:103DC00095C0FE01EC0DF11D8081803309F087C0A4
:103DD000242D297E422E842D8870582E43FC95C0B8
:103DE00040FE8FC09C2C821418F42C0C922C981836
:103DF00044FE91C0B70180E390E00E94B71F42FEED
:103E000009C088E790E041FE02C088E590E0B70174
:103E10000E94B71FC91408F48AC0CA94D12C9FEF1E
:103E2000C91AD90ACA0CDB1CF60182916F01B701CD
:103E300090E00E94B71FAC14BD04B1F74FCF608172
:103E40007181072E000C880B990B0E5F1F4F92CFCC
:103E5000D32CE894D4F82AE030E0853739F1232DCB
:103E6000297FD22E8F3601F148F48835A9F0F70169
:103E7000868197812B96E2E10C94391B803749F0BB
:103E80008837A9F7D4FE02C06894D2F820E130E068
:103E90000DC06894D4F8F6CF34FE03C0822F86603C
:103EA000D82E20E132E002C028E030E0F801D7FE51
:103EB0000FC060817181828193810C5F1F4FA501CA
:103EC0000E94E71FC82ECA183D2CE89437F867CF28
:103ED0006081718190E080E00E5F1F4FF0CF42FC67
:103EE00002C0839478CF8394839475CF842D867891
:103EF00009F471CFF6CFB70180E290E00E94B71FBE
:103F000083948214C0F3512C73CF522C581882140E
:103F100008F46ECFF8CF842D867809F47BCF8BE23E
:103F200041FE80E247FC8DE2B70190E071CFB7011E
:103F300080E390E00E94B71F9A946CCF8FEF9FEFC1
:103F400099CFFC010590615070400110D8F7809521
:103F500090958E0F9F1F0895FC0161507040019055
:103F60000110D8F7809590958E0F9F1F08950F939D
:103F70001F93CF93DF93182F092FEB018B8181FDC6
:103F800009C01FEF0FEF812F902FDF91CF911F916D
:103F90000F91089582FF14C02E813F818C819D81F5
:103FA000281739073CF4E881F981CF0101969983FC
:103FB000888310838E819F8101969F838E83E3CFB8
:103FC000E885F985812F0995892BA1F3DACFFA01CC
:103FD000AA27283051F1203181F1E8946F936E7F48
:103FE0006E5F7F4F8F4F9F4FAF4FB1E03ED0B4E039
:103FF0003CD0670F781F891F9A1FA11D680F791F7A
:104000008A1F911DA11D6A0F711D811D911DA11D8A
:1040100020D009F468943F912AE0269F112430199A
:10402000305D3193DEF6CF010895462F4770405D35
:104030004193B3E00FD0C9F7F6CF462F4F70405DE4
:104040004A3318F0495D31FD4052419302D0A9F73F
:10405000EACFB4E0A6959795879577956795BA9539
:10406000C9F700976105710508959B01AC010A2EFF
:1040700006945795479537952795BA95C9F7620FD6
:10408000731F841F951FA01D0895F894FFCFFF0193
:104090000160FFFFFFFF01000000000077058000C6
:1040A00057415645000000005401B400E100A10151
:1040B0001201F000040100000000C80DAB0D9B0DC3
:1040C000720D7B0DF50DFF0D00000000100DB4000A
:1040D0000A0B710D0D0A002F004E756D626572207E
:1040E0006F6620627574746F6E733A005344206675
:1040F00061696C00706C6179696E6700312E77615F
:104100007600446F6E65210025692E776D7600423A
:104110007574746F6E2000206973207072657373FC
:0C41200065642E00506C6179696E6700C8
:107E0000112484B714BE81FFF0D085E080938100F7
:107E100082E08093C00088E18093C10086E0809377
:107E2000C20080E18093C4008EE0C9D0259A86E02C
:107E300020E33CEF91E0309385002093840096BBD3
:107E4000B09BFECF1D9AA8958150A9F7CC24DD24C4
:107E500088248394B5E0AB2EA1E19A2EF3E0BF2EE7
:107E6000A2D0813461F49FD0082FAFD0023811F036
:107E7000013811F484E001C083E08DD089C08234E0
:107E800011F484E103C0853419F485E0A6D080C0E4
:107E9000853579F488D0E82EFF2485D0082F10E0AE
:107EA000102F00270E291F29000F111F8ED06801E7
:107EB0006FC0863521F484E090D080E0DECF843638
:107EC00009F040C070D06FD0082F6DD080E0C81688
:107ED00080E7D80618F4F601B7BEE895C0E0D1E017
:107EE00062D089930C17E1F7F0E0CF16F0E7DF06D8
:107EF00018F0F601B7BEE89568D007B600FCFDCFD4
:107F0000A601A0E0B1E02C9130E011968C91119780
:107F100090E0982F8827822B932B1296FA010C0160
:107F200087BEE89511244E5F5F4FF1E0A038BF0790
:107F300051F7F601A7BEE89507B600FCFDCF97BE46
:107F4000E89526C08437B1F42ED02DD0F82E2BD052
:107F50003CD0F601EF2C8F010F5F1F4F84911BD097
:107F6000EA94F801C1F70894C11CD11CFA94CF0C13
:107F7000D11C0EC0853739F428D08EE10CD085E9AC
:107F80000AD08FE07ACF813511F488E018D01DD067
:107F900080E101D065CF982F8091C00085FFFCCF94
:107FA0009093C60008958091C00087FFFCCF809118
:107FB000C00084FD01C0A8958091C6000895E0E648
:107FC000F0E098E1908380830895EDDF803219F02E
:107FD00088E0F5DFFFCF84E1DECF1F93182FE3DFCA
:107FE0001150E9F7F2DF1F91089580E0E8DFEE27F6
:047FF000FF270994CA
:027FFE00040479
:00000001FF
